S00B0000706A312E737265630E
S1130000C2C00000DEC00000DCC00000DAC0000096
S1130010D8C0000092C40000D6C40000D2C00000C2
S1130020D0C0000065C40000CCC00000CAC00000FD
S1130030C8C00000C6C00000C4C00000C2C00000A8
S1130040C0C00000BEC00000BCC00000BAC00000B8
S1130050B8C00000B6C00000B4C00000B2C00000C8
S1130060B0C00000AEC00000ACC00000AAC00000D8
S1130070A8C00000A6C00000A4C00000A2C00000E8
S1130080A0C000009EC000009CC0000000407A1088
S1130090F35A00A0724E18090010A5D4E80000E835
S11300A07648170000E40B54020000CA9A3B000093
S11300B000E1F505000080969800000040420F0022
S11300C00000A08601000000102700000000E803E3
S11300D0000000006400000000000A0000000000AE
S11300E00100000000002C76D888DC674F0823DF6D
S11300F0C1DFAE59E1B1B796E5E3E453C63AE65140
S1130100997696E8E6C28426EB898C9B62ED407C66
S11301106FFCEFBC9C9F40F2BAA56FA5F490055A02
S11301202AF75C936B6CF9676DC11BFCE0E40D4727
S1130130FEF520E6B500D0ED902E0300943577054A
S11301400080841E080000204E0A000000C80C3302
S11301503333330F986E12831141EF8D2114893B91
S1130160E65516CFFEE6DB18D1844B381BF77C1D11
S1130170901DA4BBE424203284725E228100C9F164
S113018024ECA1E53D2711241FBECFEFD0E1DEBF53
S1130190CDBF11E0A0E0B1E0ECE6FAE100E00BBF76
S11301A002C007900D92A63CB107D9F721E0A6EC56
S11301B0B1E001C01D92A33FB207E1F74AD40C9409
S11301C0340D1ECF1092710088E48093700008955E
S11301D084EA80937400809174008823E4F708957E
S11301E084E9809374008FE99FE00197F1F700C0E0
S11301F0000008958093730084E8809374008091D4
S113020074008823E4F708951F93CF93DF93182F86
S1130210107F90E1899FE0011124DADF8EE4EADFA8
S1130220812F8C60E7DF85E08A95F1F70000812F4C
S11302308860E0DF8FE193E00197F1F700C00000F0
S11302408C2F8C60D7DF95E09A95F1F700008C2F06
S11302508860D0DF8FE39FE10197F1F700C00000D1
S1130260BFDFDF91CF911F9108951F93CF93DF9349
S1130270182F107F90E1899FE0011124A9DF8EE4FB
S1130280B9DF812F8D60B6DF85E08A95F1F7000034
S1130290812F8960AFDF8FE193E00197F1F700C010
S11302A000008C2F8D60A6DF95E09A95F1F7000091
S11302B08C2F89609FDF8FE39FE10197F1F700C0E6
S11302C000008EDFDF91CF911F9108952FEF89EF0A
S11302D090E0215080409040E1F700C0000083E3AB
S11302E093DF8FE19EE40197F1F700C0000082E301
S11302F08BDF8FE99FE00197F1F700C0000088E2EF
S113030083DF8FE99FE00197F1F700C000008CE0E4
S11303107BDF8FE99FE00197F1F700C0000086E0E2
S113032073DF8FE99FE00197F1F700C0000081E0DF
S11303306BDF8FE39FE10197F1F700C000000895A0
S1130340CF93DF93EC0102C021968FDF8881811166
S1130350FBCFDF91CF91089581E056DF8FE39FE1DA
S11303600197F1F700C000000895611102C090E800
S113037001C090EC890F48CF08958CE085BD89EFCA
S113038083BD87B7806887BF089581B3887F81BBA9
S113039082B3876082BB089582B18F7C82B983B1B6
S11303A0806383B98AB783608ABF8AB78C608ABF47
S11303B089B7806389BF78940895CF93C0B3C2701E
S11303C080910201C81709F453C08091D50190911E
S11303D0D601A091D701B091D8014091D00150919C
S11303E0D1016091D2017091D301841B950BA60BAE
S11303F0B70BC397A105B10508F43AC0C11126C0D3
S11304001092DF011092E0011092E1011092E201DA
S11304101092D90161E080E0A8DF84E091E090DFF0
S113042060E080E0A2DF8091DE01813041F018F0CD
S1130430823049F00BC085E191E082DF07C086E29B
S113044091E07EDF03C087E391E07ADFC09302018D
S11304508091D5019091D601A091D701B091D80196
S11304608093D0019093D101A093D201B093D30192
S1130470CF910895AF92BF92CF92DF92FF920F93E4
S11304801F93CF93DF93CDB7DEB728970FB6F894B9
S1130490DEBF0FBECDBF80B38170F82E8091010105
S11304A0F81609F4D9C18091D5019091D601A09193
S11304B0D701B091D8014091CC015091CD01609108
S11304C0CE017091CF01841B950BA60BB70BC3977C
S11304D0A105B10508F4C0C1F110ACC18091D401EB
S11304E0882309F4A7C01092D4016091DF017091B0
S11304F0E0018091E1019091E20158D420E030E0E4
S11305004AEF54E4E9D323E333E34BE752E4DAD488
S11305102091DE012130F9F020F0223009F43AC0B4
S113052057C09E012F5F3F4F6901890121E043E0DD
S113053053D5DF92CF9288E491E09F938F9383EE1B
S113054091E09F938F9367D50F900F900F900F902A
S11305500F900F903DC020E030E048EC52E4BCD353
S11305609E012F5F3F4F5901890121E043E034D5BB
S1130570BF92AF9288E591E09F938F9383EE91E0D1
S11305809F938F9348D50F900F900F900F900F90DB
S11305900F901EC020E030E543EC57E49DD39E014C
S11305A02F5F3F4F5901890122E043E015D5BF92E7
S11305B0AF9288E691E09F938F9383EE91E09F93AF
S11305C08F9329D50F900F900F900F900F900F904D
S11305D060E080E0CADE83EE91E0B2DE8091D90172
S11305E0882319F023E530E002C020E230E0809156
S11305F0DF019091E001A091E101B091E2013F930C
S11306002F93BF93AF939F938F9388E791E09F932A
S11306108F9383EE91E09F938F93FDD461E080E00C
S1130620A4DE83EE91E08CDE0FB6F894DEBF0FBE3D
S1130630CDBF00C11092CB011092CA014091D501E7
S11306405091D6016091D7017091D801A3C08091D7
S1130650D5019091D601A091D701B091D801841B06
S1130660950BA60BB70B85369105A105B10508F4CA
S113067082C081E08093D4018091DE01813039F120
S113068020F0823009F44AC06FC06091DA017091A1
S1130690DB018091DC019091DD019E012F5F3F4FD2
S11306A06901890121E043E097D4DF92CF9288E881
S11306B091E09F938F9383EE91E09F938F93ABD4BC
S11306C00F900F900F900F900F900F904DC060916E
S11306D0DA017091DB018091DC019091DD0120E071
S11306E030E048EC52E4F8D29E012F5F3F4F69019D
S11306F0890121E043E070D4DF92CF9288E991E050
S11307009F938F9383EE91E09F938F9384D40F9064
S11307100F900F900F900F900F9026C06091DA0108
S11307207091DB018091DC019091DD0120E030E5E6
S113073043EC57E4D1D29E012F5F3F4F69018901F9
S113074022E043E049D4DF92CF9288EA91E09F937C
S11307508F9383EE91E09F938F935DD40F900F90CE
S11307600F900F900F900F9060E080E0FEDD83EE1D
S113077091E0E6DD71C08FE39CE90197F1F700C0D9
S113078000008091CA019091CB0101969093CB0116
S11307908093CA01809B5BCF8091CA019091CB0169
S11307A00B9708F047C06091DF017091E0018091E0
S11307B0E1019091E201FAD220E030E04AEF54E402
S11307C08BD223E333E34BE752E47CD36093DA0127
S11307D07093DB018093DC019093DD0181E08093D1
S11307E0D90110E01FC061E08DE0BFDD88EB91E02E
S11307F0A7DD9FEF25EA3EE0915020403040E1F72D
S113080000C0000061E08DE0B0DD83E191E098DD9F
S11308108FEF95EA2EE0815090402040E1F700C030
S113082000001F5F1230F8F261E08DE09EDD88EB7E
S113083091E086DDF09201018091D5019091D6017D
S1130840A091D701B091D8018093CC019093CD01B0
S1130850A093CE01B093CF0128960FB6F894DEBFD3
S11308600FBECDBFDF91CF911F910F91FF90DF900D
S1130870CF90BF90AF90089520B324708091000171
S11308802817A9F18091D5019091D601A091D701A3
S1130890B091D8014091C6015091C7016091C8013F
S11308A07091C901841B950BA60BB70BC397A105C7
S11308B0B105E8F0211109C08091DE0190E00196B4
S11308C063E070E062D38093DE01209300018091A5
S11308D0D5019091D601A091D701B091D801809310
S11308E0C6019093C701A093C801B093C9010895AC
S11308F01F920F920FB60F9211248F939F93AF9371
S1130900BF938091D5019091D601A091D701B09168
S1130910D8010196A11DB11D8093D5019093D601F4
S1130920A093D701B093D801BF91AF919F918F91BC
S11309300F900FBE0F901F9018951F920F920FB635
S11309400F9211248F939F93AF93BF938091D401FF
S1130950811130C091B19295917081B185FB882746
S113096080F99817A1F08091DF019091E001A091A6
S1130970E101B091E2010196A11DB11D8093DF0157
S11309809093E001A093E101B093E20113C0809140
S1130990DF019091E001A091E101B091E2010197A2
S11309A0A109B1098093DF019093E001A093E101D3
S11309B0B093E201BF91AF919F918F910F900FBEC1
S11309C00F901F9018951F920F920FB60F9211243B
S11309D08F939F93AF93BF938091D401811130C0C3
S11309E091B19295917081B185FB882780F9981314
S11309F014C08091DF019091E001A091E101B091D8
S1130A00E2010196A11DB11D8093DF019093E001E5
S1130A10A093E101B093E20113C08091DF019091B2
S1130A20E001A091E101B091E2010197A109B109AE
S1130A308093DF019093E001A093E101B093E20180
S1130A40BF91AF919F918F910F900FBE0F901F9008
S1130A501895CF93DF93CDB7DEB728970FB6F894E8
S1130A60DEBF0FBECDBFF894ADDB30DC95DC8DDC92
S1130A7084DC789471DC60E080E077DC85E191E0EF
S1130A805FDC61E080E071DC84E091E059DC412CC2
S1130A90512C3201812C912C5401C090D501D0905D
S1130AA0D601E090D701F090D801D701C60184198E
S1130AB09509A609B7094497A105B10528F07DDC7D
S1130AC0D9DCDADE260137018091D4018111E5CF2A
S1130AD0D701C60188199909AA09BB09C297A105BA
S1130AE0B105D8F26091DF017091E0018091E101DC
S1130AF09091E2015BD12091BE013091BF01409100
S1130B00C0015091C101E8D02091BA013091BB01DC
S1130B104091BC015091BD01D5D14B015C01909134
S1130B2003018091DE01981709F471C08091DE0100
S1130B30813009F120F0823009F43EC05DC09E018D
S1130B402F5F3F4F1901890121E043E0C501B40142
S1130B5043D23F922F9288E491E09F938F9383EE48
S1130B6091E09F938F9357D20F900F900F900F9017
S1130B700F900F9041C020E030E048EC52E4C501F2
S1130B80B401AAD09E012F5F3F4F5901890121E092
S1130B9043E022D2BF92AF9288E591E09F938F9376
S1130BA083EE91E09F938F9336D20F900F900F9026
S1130BB00F900F900F9020C020E030E543EC57E4F5
S1130BC0C501B40189D09E012F5F3F4F59018901AE
S1130BD022E043E001D2BF92AF9288E691E09F9376
S1130BE08F9383EE91E09F938F9315D20F900F9084
S1130BF00F900F900F900F9060E080E0B6DB83EED3
S1130C0091E09EDB8091DE018093030132C060E0BD
S1130C1089E0ABDB8091DE01813069F018F082302D
S1130C20C1F024C08E010F5F1F4F21E043E0C501D6
S1130C30B401D2D11BC020E030E048EC52E4C5013D
S1130C40B4014AD08E010F5F1F4F21E043E0C4D1AD
S1130C500DC020E030E543EC57E4C501B4013CD0BD
S1130C608E010F5F1F4F22E043E0B6D1CE01019603
S1130C7067DB61E087E079DB8091DF019091E0013F
S1130C80A091E101B091E201BF93AF939F938F9341
S1130C9082EC91E09F938F9383EE91E09F938F93E7
S1130CA0BAD183EE91E04CDB81E191E049DB61E074
S1130CB08DE05BDB8091D9010FB6F894DEBF0FBEE7
S1130CC0CDBF882319F088EB91E002C083E191E065
S1130CD037DB46015701E1CE0CD0BAC0B2D040F0A8
S1130CE0A9D030F021F45F3F19F09BC05111E4C04A
S1130CF09EC0BFD098F39923C9F35523B1F3951B34
S1130D00550BBB27AA2762177307840738F09F5F28
S1130D105F4F220F331F441FAA1FA9F333D00E2E97
S1130D203AF0E0E830D091505040E695001CCAF704
S1130D3029D0FE2F27D0660F771F881FBB1F2617C9
S1130D4037074807AB07B0E809F0BB0B802DBF019C
S1130D50FF2793585F4F2AF09E3F510568F061C00A
S1130D60ABC05F3FECF3983EDCF3869577956795CF
S1130D70B795F7959F5FC9F7880F911D969587954D
S1130D8097F90895E1E0660F771F881FBB1F62176C
S1130D9073078407BA0720F0621B730B840BBA0B2A
S1130DA0EE1F88F7E0950895E89409C097FB3EF498
S1130DB090958095709561957F4F8F4F9F4F9923A4
S1130DC0A9F0F92F96E9BB279395F6958795779522
S1130DD06795B795F111F8CFFAF4BB0F11F460FFE2
S1130DE01BC06F5F7F4F8F4F9F4F16C0882311F03A
S1130DF096E911C0772321F09EE8872F762F05C04E
S1130E00662371F096E8862F70E060E02AF09A95E8
S1130E10660F771F881FDAF7880F9695879597F9DD
S1130E20089597F99F6780E870E060E008959FEF68
S1130E3080EC089500240A9416161706180609066D
S1130E40089500240A94121613061406050608953C
S1130E50092E0394000C11F4882352F0BB0F40F4C4
S1130E60BF2B11F460FF04C06F5F7F4F8F4F9F4F04
S1130E70089557FD9058440F551F59F05F3F71F086
S1130E804795880F97FB991F61F09F3F79F08795ED
S1130E900895121613061406551FF2CF4695F1DF76
S1130EA008C0161617061806991FF1CF8695710506
S1130EB0610508940895E894BB2766277727CB013A
S1130EC097F908950BD0C4CFB5DF28F0BADF18F036
S1130ED0952309F0A6CFABCF1124EECFCADFA0F340
S1130EE0959FD1F3950F50E0551F629FF001729FBB
S1130EF0BB27F00DB11D639FAA27F00DB11DAA1FDA
S1130F00649F6627B00DA11D661F829F2227B00D26
S1130F10A11D621F739FB00DA11D621F839FA00DB1
S1130F20611D221F749F3327A00D611D231F849F01
S1130F30600D211D822F762F6A2F11249F57504058
S1130F408AF0E1F088234AF0EE0FFF1FBB1F661FF3
S1130F50771F881F91505040A9F79E3F510570F0AC
S1130F6060CFAACF5F3FECF3983EDCF3869577958C
S1130F706795B795F795E7959F5FC1F7FE2B880FA7
S1130F80911D9695879597F9089597FB072E16F46A
S1130F90009406D077FD08D00BD007FC05D03EF4B2
S1130FA0909581959F4F0895709561957F4F089511
S1130FB0AA1BBB1B51E107C0AA1FBB1FA617B7077B
S1130FC010F0A61BB70B881F991F5A95A9F7809597
S1130FD09095BC01CD010895EF920F931F93CF9389
S1130FE0DF93E80147FD02C034E001C034E1042E80
S1130FF0000C550B57FF03C0519541955109E32E41
S1131000022F242FAE0132D2CE01DF91CF911F9156
S11310100F91EF9008950F931F93CF93DF93CDB764
S1131020DEB72E970FB6F894DEBF0FBECDBF0D8985
S11310301E8986E08C831A8309838FEF9FE79E8342
S11310408D83AE01475E5F4F6F89788DCE01019627
S113105010D0EF81F885E00FF11F10822E960FB6A5
S1131060F894DEBF0FBECDBFDF91CF911F910F91DA
S113107008952F923F924F925F926F927F928F9238
S11310809F92AF92BF92CF92DF92EF92FF920F9313
S11310901F93CF93DF93CDB7DEB72B970FB6F8949A
S11310A0DEBF0FBECDBF6C017B018A01FC0117823C
S11310B01682838181FFBFC1CE0101963C01F601F6
S11310C09381F70193FD859193FF81917F0188239B
S11310D009F4ADC1853239F493FD859193FF819173
S11310E07F01853221F4B60190E024D4E8CF912C1D
S11310F0212C312CFFE1F315D8F08B3279F038F440
S1131100803279F08332A1F4232D20611DC08D3209
S113111061F0803369F4232D216016C0832D826031
S1131120382EE32DE4603E2E2AC0F32DF8601DC056
S113113037FC2DC020ED280F2A3040F08E32B9F450
S113114036FC75C1232D2064322E19C036FE06C02C
S11311508AE0989E200D1124922E11C0EAE02E9E62
S1131160200D1124222EF32DF0623F2E08C08C3660
S113117021F4832D8068382E02C0883641F4F701AB
S113118093FD859193FF81917F018111B3CF982FB6
S11311909F7D9554933028F40C5F1F4F9FE39983F0
S11311A00DC0833631F0833771F0833509F055C0B3
S11311B020C0F801808189830E5F1F4F88248394A7
S11311C0912C530112C02801F2E04F0E511CF8017A
S11311D0A080B18036FE03C0692D70E002C06FEFBD
S11311E07FEFC5019CD34C018201F32DFF773F2E85
S11311F015C0280122E0420E511CF801A080B180E4
S113120036FE03C0692D70E002C06FEF7FEFC501A9
S11312107BD34C01F32DF0683F2E820133FC19C0BF
S1131220822D90E088169906A0F4B60180E290E041
S113123081D32A94F5CFF50137FC859137FE81914E
S11312405F01B60190E076D321102A9421E0821A3E
S113125091088114910479F7E1C0843611F089363C
S113126039F5F80137FE07C060817181828193816D
S11312700C5F1F4F08C060817181072E000C880B22
S1131280990B0E5F1F4FF32DFF763F2E97FF09C07A
S113129090958095709561957F4F8F4F9F4FF06823
S11312A03F2E2AE030E0A30181D3882E861844C063
S11312B0853731F4232D2F7EB22E2AE030E025C06D
S11312C0932D997FB92E8F36C1F018F4883579F0B3
S11312D0AEC0803719F0883721F0A9C0E92FE0614A
S11312E0BE2EB4FE0DC0FB2DF460BF2E09C034FE2B
S11312F00AC0292F2660B22E06C028E030E005C0BF
S113130020E130E002C020E132E0F801B7FE07C07E
S113131060817181828193810C5F1F4F06C060815F
S1131320718180E090E00E5F1F4FA3013FD3882EB0
S11313308618FB2DFF773F2E36FE0DC0232D2E7F02
S1131340A22E891458F434FE0BC032FC09C0832D3C
S11313508E7EA82E05C0B82CA32C03C0B82C01C0C7
S1131360B92CA4FE0FC0FE01E80DF11D808180336D
S113137021F49A2D997EA92E09C0A2FE06C0B39429
S1131380B39404C08A2D867809F0B394A3FC10C0EA
S1131390A0FE06C0B21480F4280C922C9B180DC039
S11313A0B21458F4B60180E290E0C4D2B394F8CFFA
S11313B0B21418F42B1802C0982C212CA4FE0FC0D0
S11313C0B60180E390E0B6D2A2FE16C0A1FC03C031
S11313D088E790E002C088E590E0B6010CC08A2D51
S11313E0867851F0A1FE02C08BE201C080E2A7FC26
S11313F08DE2B60190E09ED2891430F4B60180E308
S113140090E098D29A94F8CF8A94F301E80DF11DF4
S11314108081B60190E08ED28110F6CF222009F4AB
S11314204ECEB60180E290E085D22A94F7CFF60141
S11314308681978102C08FEF9FEF2B960FB6F894A9
S1131440DEBF0FBECDBFDF91CF911F910F91FF90F3
S1131450EF90DF90CF90BF90AF909F908F907F9050
S11314606F905F904F903F902F9008958F929F922E
S1131470AF92BF92CF92DF92EF92FF920F931F939E
S1131480CF93DF93CDB7DEB729970FB6F894DEBFBD
S11314900FBECDBF6A01122FB02E2BE3201720F010
S11314A0FF24F394F00E02C02CE3F22E0F2D27E05C
S11314B0AE014F5F5F4F50D1BC014981842F8970C9
S11314C0813031F0E1FC06C0E0FE06C090E205C0C8
S11314D09DE203C09BE201C090E05E2D507143FF8A
S11314E03CC0911102C083E001C084E0811718F46C
S11314F0212F281B01C020E051110BC0F601822FBF
S113150030E2882319F031938150FBCFC20ED11CF5
S113151020E0992329F0D6019C93F60131966F01BE
S1131520C6010396E2FE0AC03EE4D6013C9341E4C0
S113153011964C93119712963C9306C03EE6F60121
S1131540308341E641833283FC01322F40E233236E
S113155009F442C041933150FACF42FF44C0911183
S113156002C083E001C084E0811718F4212F281BF6
S113157001C020E051110BC0F601822F30E2882314
S113158019F031938150FBCFC20ED11C20E0992376
S113159029F0D6019C93F60131966F01C60103969A
S11315A0E2FE0BC039E4D6013C933EE411963C9331
S11315B0119736E412963C9307C039E6F60130835E
S11315C03EE6318336E63283FC01322F40E2332398
S11315D019F041933150FBCFFC01E20FF11D108251
S11315E08EEF9FEFA6C021E030E0911102C020E011
S11315F030E0161617061CF4FB01319602C0E1E038
S1131600F0E02E0F3F1FBB2021F0EB2DF0E03196D0
S113161002C0E0E0F0E02E0F3F1FE12FF0E02E17B4
S11316203F071CF4121B212F01C020E08E2D88716E
S113163059F4F601822F30E2882319F03193815056
S1131640FBCFC20ED11C20E0992329F0D6019C9334
S1131650F60131966F0151110BC0F601822F90E310
S1131660882319F091938150FBCFC20ED11C20E046
S11316700F2D060F9A81342F307144FF03C091332C
S113168009F40150101624F4093018F008E001C0E0
S113169001E0AB0177FF02C040E050E0FB01E41B36
S11316A0F50BA1E0B0E0AC0FBD1FEA0FFB1F8EE20B
S11316B0A82E4B01801A91080B2D10E0119501956D
S11316C011094F3FBFEF5B0721F4D601AC9211968D
S11316D06D01641775072CF08416950614F4818146
S11316E001C080E3415051093196D60111967D0124
S11316F04017510724F0D6018C936701E2CF641799
S1131700750739F4963320F4953319F4311101C077
S113171081E3F6018083F701822F90E2882319F098
S113172091938150FBCFF701E20FF11D108280E00D
S113173090E029960FB6F894DEBF0FBECDBFDF91BF
S1131740CF911F910F91FF90EF90DF90CF90BF90BA
S1131750AF909F908F900895283008F027E03327AA
S1131760DA01990F311D87FD9160009661057105BD
S113177039F432602E5F3D9330E32A95E1F7089502
S11317809F3F30F080387105610509F03C5F3C5F94
S11317903D93913008F08068911DDF93CF931F93A0
S11317A00F93FF92EF92192F987F9695E92F9695B4
S11317B09695E90FFF27EA51FF4F99273327EE2427
S11317C0FF24A701E70105900894079428F4360F35
S11317D0E71EF81E491F511D660F771F881F991FAA
S11317E00694A1F70590079428F4E70EF81E491F04
S11317F0561FC11D770F881F991F661F0694A1F7F6
S11318000590079428F4F80E491F561FC71FD11DD1
S1131810880F991F661F771F0694A1F705900794F8
S113182020F4490F561FC71FD81F990F661F771F33
S1131830881F0694A9F784911095177041F0D695E6
S1131840C79557954795F794E7941A95C1F7ECE82F
S1131850F0E06894159015913591659195910590F6
S11318607FE27395E118F10A430B560BC90BD009BB
S1131870C0F7E10CF11E431F561FC91FD01D7EF493
S1131880703311F48A95E6CFE894015030F0080FD4
S11318900AF40027021708F4202F2395022F7A3325
S11318A028F079E37D932A95E9F710C07D932A9572
S11318B089F6069497956795379517951794E118C7
S11318C0F10A430B560BC90BD00998F023957E916E
S11318D073957A3308F070E37C932013B8F77E9104
S11318E070617D9330F0839571E37D9370E32A9565
S11318F0E1F71124EF90FF900F911F91CF91DF91A9
S1131900992787FD90950895FC01059061507040DA
S11319100110D8F7809590958E0F9F1F0895FC01B4
S11319206150704001900110D8F7809590958E0F0A
S11319309F1F08950F931F93CF93DF93FB01238180
S113194021FD03C08FEF9FEF2CC022FF16C04681FC
S11319505781248135814217530744F4A081B18112
S11319609D012F5F3F4F318320838C9326813781E4
S11319702F5F3F4F3783268314C08B01EC01FB019B
S11319800084F185E02D0995892BE1F6D80116969E
S11319908D919C911797019617969C938E93169709
S11319A0CE01DF91CF911F910F910895FA01AA27DB
S11319B0283051F1203181F1E8946F936E7F6E5F8E
S11319C07F4F8F4F9F4FAF4FB1E03ED0B4E03CD03C
S11319D0670F781F891F9A1FA11D680F791F8A1F1F
S11319E0911DA11D6A0F711D811D911DA11D20D086
S11319F009F468943F912AE0269F11243019305D40
S1131A003193DEF6CF010895462F4770405D419330
S1131A10B3E00FD0C9F7F6CF462F4F70405D4A337D
S1131A2018F0495D31FD4052419302D0A9F7EACF45
S1131A30B4E0A6959795879577956795BA95C9F774
S1131A4000976105710508959B01AC010A2E069467
S1131A505795479537952795BA95C9F7620F731F20
S10F1A60841F951FA01D0895F894FFCF6B
S1131A6C010101FF436F756E743A20302020202051
S1131A7C202020200044697374616E63653A203021
S1131A8C2E30636D200044697374616E63653A2073
S1131A9C302E306D20200044697374616E63653A96
S1131AAC20302E306B6D200044697374616E636555
S1131ABC3A2573636D20200044697374616E636509
S1131ACC3A25736D2020200044697374616E63653C
S1131ADC3A25736B6D202000436F756E743A202584
S1131AEC6C6420202025630053617665643A2025BC
S1131AFC73636D202020200053617665643A2025A1
S1131B0C736D20202020200053617665643A2025D3
S1131B1C736B6D2020202000530033337B42000074
S1091B2CFA44256C64007C
S9030000FC
